:0400000053EF00F0CA
:10000800FACF02F0FBCF03F0E9CF04F0EACF05F016
:10001800E1CF06F0E2CF07F0D9CF08F0DACF09F048
:10002800F3CF0AF0F4CF0BF0F6CF0CF0F7CF0DF0CA
:10003800F8CF0EF0F5CF0FF0F2AA01D001D012D010
:10004800F2A401D001D00ED08DA001D002D0010EB3
:1000580001D0000E016E8D500118FE0B01188D6E37
:10006800F29400D00FC0F5FF0EC0F8FF0DC0F7FFE7
:100078000CC0F6FF0BC0F4FF0AC0F3FF09C0DAFF9B
:1000880008C0D9FF07C0E2FF06C0E1FF05C0EAFFCC
:1000980004C0E9FF03C0FBFF02C0FAFF110090EFA4
:1000A80000F00A0A544B2D5A30384220436F6D70C5
:1000B800757465722042494F5320436F6E74726F96
:1000C8006C6C65720A536F66747761726520766529
:1000D8007273696F6E20302E312D3234415547329C
:1000E8003031340A436F6E74726F6C6C65723A20EB
:1000F80038204D487A207C204350553A2032204DF4
:10010800487A0A53657269616C3A2032343030207B
:10011800626175640A0A000002EE00F010EEFFF05A
:10012800EE6AE550E150FCE1E250FAE100EE15F02C
:10013800080EEE6AE806FDE1AA0EF66E000EF76EEE
:10014800000EF86E01EE00F010EE75F00900F5CF24
:10015800EEFFE550E150FAE1D40EF66E020EF76EAE
:10016800000EF86E00EEDFF010EE09F00900F5CF92
:10017800EEFFE550E150FAE1000EF86E0001C5EF20
:1001880000F0FAEC00F065EC01F06FEC01F03FECE8
:1001980001F04EEC01F072EC01F021EE00F010EEEF
:1001A80060F0750EDECFE6FFE82EFCD720EEDFF01C
:1001B80010EED5F0090EDECFE6FFE82EFCD70001E1
:1001C800000E126E0001600E116E21EC01F05FEC62
:1001D80001F000010001DE6F00010001DE51D8B41A
:1001E800F6D7DEC010F057EC01F0F1D7000E0F0182
:1001F8000F01386F000E0F010F01396F000E0F014C
:100208000F013A6F000E0F010F013B6F000E0F0137
:100218000F013C6F010E926E000E956E96909490B1
:100228009692948A948893889482948494869684E7
:100238008D908B808D82939A1200000E146E000EA2
:10024800136E0FD013501124D96E14501220DA6E89
:10025800DF50106E57EC01F00009D8B4F3D7134AF9
:10026800142A13501124D96E14501220DA6EDF505C
:10027800D8B41200E7D7AC9CAC8AAC98AC94AB8EDF
:10028800AB9CAB88B898B896B890330EAF6E000E9A
:10029800B06E1200D58CD59AD596D550F80B0109B9
:1002A800D56EF28A1200ACA204D010C0ADFF010EC8
:1002B8001200000E12009EAA02D0AE501200000ECC
:1002C8001200D3508F0B6009D36E120048616C7412
:1002D80065642E200000F28EF28C1200D58E12007A
:020000040020DA
:08000000FFFFFFFFFFFFFFFF00
:020000040030CA
:0E000000FF28193CFFBF85FF0FC00FE00F4027
:00000001FF
